{
  "contractName": "TodoList",
  "abi": [
    {
      "constant": true,
      "inputs": [
        {
          "name": "",
          "type": "uint256"
        }
      ],
      "name": "tasks",
      "outputs": [
        {
          "name": "id",
          "type": "uint256"
        },
        {
          "name": "content",
          "type": "string"
        },
        {
          "name": "completed",
          "type": "bool"
        }
      ],
      "payable": false,
      "stateMutability": "view",
      "type": "function",
      "signature": "0x8d977672"
    },
    {
      "constant": true,
      "inputs": [],
      "name": "taskCount",
      "outputs": [
        {
          "name": "",
          "type": "uint256"
        }
      ],
      "payable": false,
      "stateMutability": "view",
      "type": "function",
      "signature": "0xb6cb58a5"
    },
    {
      "inputs": [],
      "payable": false,
      "stateMutability": "nonpayable",
      "type": "constructor",
      "signature": "constructor"
    },
    {
      "anonymous": false,
      "inputs": [
        {
          "indexed": false,
          "name": "id",
          "type": "uint256"
        },
        {
          "indexed": false,
          "name": "content",
          "type": "string"
        },
        {
          "indexed": false,
          "name": "completed",
          "type": "bool"
        }
      ],
      "name": "TaskCreated",
      "type": "event",
      "signature": "0x05d0fb833127fc08168556d0e7ca9554fc3f6bc843b3b7d2bf1c35aea6bab660"
    },
    {
      "anonymous": false,
      "inputs": [
        {
          "indexed": false,
          "name": "id",
          "type": "uint256"
        },
        {
          "indexed": false,
          "name": "completed",
          "type": "bool"
        }
      ],
      "name": "TaskCompleted",
      "type": "event",
      "signature": "0xe21fa966ca5cd02748c0752352d18c48165e61cb55b4c29cccf924b5a95fcff1"
    },
    {
      "constant": false,
      "inputs": [
        {
          "name": "_content",
          "type": "string"
        }
      ],
      "name": "createTask",
      "outputs": [],
      "payable": false,
      "stateMutability": "nonpayable",
      "type": "function",
      "signature": "0x111002aa"
    },
    {
      "constant": false,
      "inputs": [
        {
          "name": "_id",
          "type": "uint256"
        }
      ],
      "name": "toggleCompleted",
      "outputs": [],
      "payable": false,
      "stateMutability": "nonpayable",
      "type": "function",
      "signature": "0x455f5024"
    }
  ],
  "bytecode": "0x6080604052600080553480156200001557600080fd5b5060408051808201909152601881527f536f75746820537564616e2c20372e323431333338323525000000000000000060208201526200005e906401000000006200079a810204565b60408051808201909152601181527f436861642c2031312e30383031313732250000000000000000000000000000006020820152620000a6906401000000006200079a810204565b60408051808201909152601481527f427572756e64692c2031312e37333535353536250000000000000000000000006020820152620000ee906401000000006200079a810204565b60408051808201909152601381527f4d616c6177692c2031342e383636373638382500000000000000000000000000602082015262000136906401000000006200079a810204565b620001ac606060405190810160405280602581526020017f43656e7472616c204166726963616e2052657075626c69632c2031352e34363581526020017f30383431250000000000000000000000000000000000000000000000000000008152506200079a640100000000026401000000009004565b60408051808201909152601981527f4275726b696e61204661736f2c2031382e3935373233393225000000000000006020820152620001f4906401000000006200079a810204565b60408051808201909152601d81527f436f6e676f2c2044656d2e205265702e2c2031392e313030303030342500000060208201526200023c906401000000006200079a810204565b60408051808201909152601281527f4e696765722c2031392e32353139303933250000000000000000000000000000602082015262000284906401000000006200079a810204565b60408051808201909152601981527f536965727261204c656f6e652c2032362e3230303838353825000000000000006020820152620002cc906401000000006200079a810204565b60408051808201909152601481527f4c6962657269612c2032372e3533343730393925000000000000000000000000602082015262000314906401000000006200079a810204565b60408051808201909152601781527f4d6f7a616d62697175652c2033302e363033383332322500000000000000000060208201526200035c906401000000006200079a810204565b60408051808201909152601a81527f4775696e65612d4269737361752c2033332e33333534363833250000000000006020820152620003a4906401000000006200079a810204565b60408051808201909152601781527f4d6164616761736361722c2033332e37333530373639250000000000000000006020820152620003ec906401000000006200079a810204565b60408051808201909152601581527f54616e7a616e69612c2033392e39303030303135250000000000000000000000602082015262000434906401000000006200079a810204565b60408051808201909152601281527f42656e696e2c2034312e3431303935373325000000000000000000000000000060208201526200047c906401000000006200079a810204565b60408051808201909152601381527f5567616e64612c2034322e3037343431373125000000000000000000000000006020820152620004c4906401000000006200079a810204565b60408051808201909152601381527f5a616d6269612c2034342e35323434373531250000000000000000000000000060208201526200050c906401000000006200079a810204565b60408051808201909152601381527f4775696e65612c2034342e363638363738332500000000000000000000000000602082015262000554906401000000006200079a810204565b60408051808201909152601381527f5277616e64612c2034362e35393939393835250000000000000000000000000060208201526200059c906401000000006200079a810204565b60408051808201909152601381527f416e676f6c612c2034362e3839303630393725000000000000000000000000006020820152620005e4906401000000006200079a810204565b60408051808201909152601281527f48616974692c2034362e3932353533333325000000000000000000000000000060208201526200062c906401000000006200079a810204565b60408051808201909152601781527f4d6175726974616e69612c2034372e3334383431393225000000000000000000602082015262000674906401000000006200079a810204565b60408051808201909152601481527f4c65736f74686f2c2034372e33353237333734250000000000000000000000006020820152620006bc906401000000006200079a810204565b60408051808201909152601881527f436f6e676f2c205265702e2c2034392e35313731303133250000000000000000602082015262000704906401000000006200079a810204565b60408051808201909152601481527f536f6d616c69612c2034392e373330383639332500000000000000000000000060208201526200074c906401000000006200079a810204565b60408051808201909152601181527f4d616c692c2035302e3536313431363625000000000000000000000000000000602082015262000794906401000000006200079a810204565b62000968565b6000805460019081018083556040805160608101825282815260208082018781528284018790529386528481529190942084518155915180519293620007e993908501929190910190620008c3565b5060408201518160020160006101000a81548160ff0219169083151502179055509050507f05d0fb833127fc08168556d0e7ca9554fc3f6bc843b3b7d2bf1c35aea6bab660600054826000604051808481526020018060200183151515158152602001828103825284818151815260200191508051906020019080838360005b838110156200088357818101518382015260200162000869565b50505050905090810190601f168015620008b15780820380516001836020036101000a031916815260200191505b5094505050505060405180910390a150565b828054600181600116156101000203166002900490600052602060002090601f016020900481019282601f106200090657805160ff191683800117855562000936565b8280016001018555821562000936579182015b828111156200093657825182559160200191906001019062000919565b506200094492915062000948565b5090565b6200096591905b808211156200094457600081556001016200094f565b90565b61064480620009786000396000f3fe6080604052600436106100615763ffffffff7c0100000000000000000000000000000000000000000000000000000000600035041663111002aa8114610066578063455f50241461011b5780638d97767214610145578063b6cb58a5146101f9575b600080fd5b34801561007257600080fd5b506101196004803603602081101561008957600080fd5b8101906020810181356401000000008111156100a457600080fd5b8201836020820111156100b657600080fd5b803590602001918460018302840111640100000000831117156100d857600080fd5b91908080601f016020809104026020016040519081016040528093929190818152602001838380828437600092019190915250929550610220945050505050565b005b34801561012757600080fd5b506101196004803603602081101561013e57600080fd5b5035610344565b34801561015157600080fd5b5061016f6004803603602081101561016857600080fd5b50356104a4565b604051808481526020018060200183151515158152602001828103825284818151815260200191508051906020019080838360005b838110156101bc5781810151838201526020016101a4565b50505050905090810190601f1680156101e95780820380516001836020036101000a031916815260200191505b5094505050505060405180910390f35b34801561020557600080fd5b5061020e610553565b60408051918252519081900360200190f35b600080546001908101808355604080516060810182528281526020808201878152828401879052938652848152919094208451815591518051929361026d93908501929190910190610559565b5060408201518160020160006101000a81548160ff0219169083151502179055509050507f05d0fb833127fc08168556d0e7ca9554fc3f6bc843b3b7d2bf1c35aea6bab660600054826000604051808481526020018060200183151515158152602001828103825284818151815260200191508051906020019080838360005b838110156103055781810151838201526020016102ed565b50505050905090810190601f1680156103325780820380516001836020036101000a031916815260200191505b5094505050505060405180910390a150565b61034c6105d7565b60008281526001602081815260409283902083516060810185528154815281840180548651600296821615610100026000190190911695909504601f810185900485028601850190965285855290949193858401939092908301828280156103f55780601f106103ca576101008083540402835291602001916103f5565b820191906000526020600020905b8154815290600101906020018083116103d857829003601f168201915b50505091835250506002919091015460ff1615156020918201526040808301805115905260008581526001808452919020835181558383015180519495508594919361044693850192910190610559565b50604091820151600291909101805460ff1916911515919091179055818101518151848152901515602082015281517fe21fa966ca5cd02748c0752352d18c48165e61cb55b4c29cccf924b5a95fcff1929181900390910190a15050565b600160208181526000928352604092839020805481840180548651600296821615610100026000190190911695909504601f810185900485028601850190965285855290949193929091908301828280156105405780601f1061051557610100808354040283529160200191610540565b820191906000526020600020905b81548152906001019060200180831161052357829003601f168201915b5050506002909301549192505060ff1683565b60005481565b828054600181600116156101000203166002900490600052602060002090601f016020900481019282601f1061059a57805160ff19168380011785556105c7565b828001600101855582156105c7579182015b828111156105c75782518255916020019190600101906105ac565b506105d39291506105fb565b5090565b60606040519081016040528060008152602001606081526020016000151581525090565b61061591905b808211156105d35760008155600101610601565b9056fea165627a7a7230582085efaca29734f28af465be0bb0f5a03100dc665324d064d02e5a47361414f5af0029",
  "source": "pragma solidity ^0.5.0;\r\n\r\ncontract TodoList {\r\n    uint public taskCount = 0;\r\n\r\n    struct Task{\r\n        uint id;\r\n        string content;\r\n        bool completed;\r\n    }\r\n\r\n    mapping(uint => Task) public tasks;\r\n\r\n    event TaskCreated(\r\n        uint id,\r\n        string content,\r\n        bool completed\r\n    );\r\n\r\n    event TaskCompleted(\r\n        uint id,\r\n        bool completed\r\n    );\r\n\r\n    constructor() public {\r\n        createTask(\"South Sudan, 7.24133825%\");\r\n        createTask(\"Chad, 11.0801172%\");\r\n        createTask(\"Burundi, 11.7355556%\");\r\n        createTask(\"Malawi, 14.8667688%\");\r\n        createTask(\"Central African Republic, 15.4650841%\");\r\n        createTask(\"Burkina Faso, 18.9572392%\");\r\n        createTask(\"Congo, Dem. Rep., 19.1000004%\");\r\n        createTask(\"Niger, 19.2519093%\");\r\n        createTask(\"Sierra Leone, 26.2008858%\");\r\n        createTask(\"Liberia, 27.5347099%\");\r\n        createTask(\"Mozambique, 30.6038322%\");\r\n        createTask(\"Guinea-Bissau, 33.3354683%\");\r\n        createTask(\"Madagascar, 33.7350769%\");\r\n        createTask(\"Tanzania, 39.9000015%\");\r\n        createTask(\"Benin, 41.4109573%\");\r\n        createTask(\"Uganda, 42.0744171%\");\r\n        createTask(\"Zambia, 44.5244751%\");\r\n        createTask(\"Guinea, 44.6686783%\");\r\n        createTask(\"Rwanda, 46.5999985%\");\r\n        createTask(\"Angola, 46.8906097%\");\r\n        createTask(\"Haiti, 46.9255333%\");\r\n        createTask(\"Mauritania, 47.3484192%\");\r\n        createTask(\"Lesotho, 47.3527374%\");\r\n        createTask(\"Congo, Rep., 49.5171013%\");\r\n        createTask(\"Somalia, 49.7308693%\");\r\n        createTask(\"Mali, 50.5614166%\");\r\n        // createTask(\"Ethiopia, 51.0939827%\");\r\n        // createTask(\"Eritrea, 52.1710968%\");\r\n        // createTask(\"Korea, Dem. People's Rep., 52.3135452%\");\r\n        // createTask(\"Zimbabwe, 52.7476692%\");\r\n        // createTask(\"Togo, 53.9974327%\");\r\n        // createTask(\"Sudan, 55.3897018%\");\r\n        // createTask(\"Nigeria, 55.4000015%\");\r\n        // createTask(\"Namibia, 56.2586937%\");\r\n        // createTask(\"Papua New Guinea, 60.4000015%\");\r\n        // createTask(\"Djibouti, 61.7670822%\");\r\n        // createTask(\"Gambia, The, 62.2730675%\");\r\n        // createTask(\"Cameroon, 64.7213669%\");\r\n        // createTask(\"Equatorial Guinea, 66.7477264%\");\r\n        // createTask(\"Vanuatu, 67.3332672%\");\r\n        // createTask(\"Cote d'Ivoire, 69.6791229%\");\r\n        // createTask(\"Libya, 69.7073517%\");\r\n        // createTask(\"Senegal, 70.3689423%\");\r\n        // createTask(\"Myanmar, 70.3971939%\");\r\n        // createTask(\"Kenya, 71.4379425%\");\r\n        // createTask(\"Botswana, 71.9947586%\");\r\n        // createTask(\"Solomon Islands, 73.3464813%\");\r\n        // createTask(\"Yemen, Rep., 73.7579269%\");\r\n        // createTask(\"Pakistan, 75.3796921%\");\r\n        // createTask(\"Sao Tome and Principe, 76.5590897%\");\r\n        // createTask(\"Eswatini, 79.7304993%\");\r\n        // createTask(\"Micronesia, Fed. Sts., 82.9259186%\");\r\n        // createTask(\"South Africa, 84.3855362%\");\r\n        // createTask(\"Ghana, 85.8735504%\");\r\n        // createTask(\"Cambodia, 86.4000015%\");\r\n        // createTask(\"Comoros, 86.7371368%\");\r\n        // createTask(\"Nicaragua, 88.9073792%\");\r\n        // createTask(\"Syrian Arab Republic, 89.1403198%\");\r\n        // createTask(\"Nepal, 89.9000015%\");\r\n        // createTask(\"Gabon, 91.5715637%\");\r\n        // createTask(\"Kiribati, 91.963028%\");\r\n        // createTask(\"Guyana, 92.5405426%\");\r\n        // createTask(\"Honduras, 93.2067108%\");\r\n        // createTask(\"Grenada, 93.5864487%\");\r\n        // createTask(\"Cabo Verde, 94.1617432%\");\r\n        // createTask(\"Timor-Leste, 96.1233139%\");\r\n        // createTask(\"Bangladesh, 96.1999969%\");\r\n        // createTask(\"Panama, 96.7046356%\");\r\n        // createTask(\"Philippines, 96.8423843%\");\r\n        // createTask(\"Indonesia, 96.9499969%\");\r\n        // createTask(\"Guatemala, 97.0552673%\");\r\n        // createTask(\"Belize, 97.1133347%\");\r\n        // createTask(\"Bolivia, 97.5541229%\");\r\n        // createTask(\"Afghanistan, 97.6999969%\");\r\n        // createTask(\"Mongolia, 98.0999985%\");\r\n        // createTask(\"Suriname, 98.2047729%\");\r\n        // createTask(\"Ecuador, 98.8499985%\");\r\n        // createTask(\"India, 99%\");\r\n        // createTask(\"Marshall Islands, 99.1606064%\");\r\n        // createTask(\"Peru, 99.3118134%\");\r\n        // createTask(\"Mexico, 99.4000015%\");\r\n        // createTask(\"Turks and Caicos Islands, 99.4000015%\");\r\n        // createTask(\"Mauritius, 99.6616516%\");\r\n        // createTask(\"Tuvalu, 99.6892319%\");\r\n        // createTask(\"Bulgaria, 99.6999969%\");\r\n        // createTask(\"Tajikistan, 99.7792969%\");\r\n        // createTask(\"Algeria, 99.8041306%\");\r\n        // createTask(\"Costa Rica, 99.9000015%\");\r\n        // createTask(\"Jordan, 99.9000015%\");\r\n        // createTask(\"Kyrgyz Republic, 99.9810486%\");\r\n    }\r\n\r\n    function createTask(string memory _content) public {\r\n        taskCount ++;\r\n        tasks[taskCount] = Task(taskCount, _content, false);\r\n        emit TaskCreated(taskCount, _content, false);\r\n    }\r\n\r\n    function toggleCompleted(uint _id) public {\r\n        Task memory _task = tasks[_id];\r\n        _task.completed = !_task.completed;\r\n        tasks[_id] = _task;\r\n        emit TaskCompleted(_id, _task.completed);\r\n    }\r\n\r\n} ",
  "sourcePath": "C:/Users/pcdcm/Documents/GitHub/la-hacks-2022/blockchain/contracts/Todolist.sol",
  "compiler": {
    "name": "solc",
    "version": "0.5.0+commit.1d4f565a.Emscripten.clang"
  },
  "schemaVersion": "3.0.1",
  "updatedAt": "2022-09-25T20:04:08.533Z",
  "devdoc": {
    "methods": {}
  },
  "userdoc": {
    "methods": {}
  }
}